:1000000019C028C027C063C025C024C023C023C096
:1000100021C020C01FC01EC01DC01CC01BC01AC0F4
:100020003FC018C017C016C015C014C013C012C0FE
:1000300011C010C011241FBECFEFCDBFDFE3DEBF64
:100040002FE3A0E8BFE301C01D92A338B207E1F798
:1000500058D052C1D5CF1F920F920FB60F921124D4
:100060008F939F9381E0809353019091803F9923D8
:1000700061F08091770684FD1092000A9F918F9124
:100080000F900FBE0F901F9018958093803F809324
:1000900076069F918F910F900FBE0F901F9018952D
:1000A0001F920F920FB60F9211248F93EF93FF932D
:1000B000E0E7F6E081E0878316821092803FFF91AF
:1000C000EF918F910F900FBE0F901F9018951F9278
:1000D0000F920FB60F9211248F939F9380E280931B
:1000E00009048091813F9091823F01968093813FE6
:1000F0009093823F9F918F910F900FBE0F901F9012
:1001000018958EE28093000484E080931704109287
:1001100004048093200488E0809333041092240424
:1001200081E08093000225ED38E092E021503040DC
:100130009040E1F723E430E02093260A3093270A29
:100140008093000A96E19093410A8093440A2EE13D
:1001500030E020934C0A30934D0A8093400A93E894
:100160009093720693E09093A00027E92093810674
:100170008093800621E22093700622E020938A017A
:1001800080938201809394019093920193E69093DF
:10019000C60198E89093C8018093C5018093C0017F
:1001A0002AE634E081E0215030408040E1F700C091
:1001B0001092803F809141018111FCCF1092470144
:1001C000809151018111FCCF81E080935201809197
:1001D00051018111FCCF89E5809350018091040485
:1001E000846080930404789422E08091280483FD45
:1001F000FCCF8AE191E40197F1F700C080912804D7
:1002000083FDF3CF809104048B7F8093040482EC00
:1002100092EA0197F1F700C080910404886080930E
:1002200004049FEB34ED81E0915030408040E1F7D1
:1002300000C000001092813F1092823F209315046D
:100240008DE890E20197F1F700001092150480917B
:10025000813F9091823F879768F08091813F909194
:10026000823F8835924030F434C08DE890E20197A7
:10027000F1F700008091280483FFF7CF80910404F8
:100280008D7F8093040485E590ED30E081509040AF
:100290003040E1F7809124048B7F8093240485E52E
:1002A00090ED30E0815090403040E1F780910404BF
:1002B000877F809304048AE694E031E08150904087
:1002C0003040E1F700C0809104048460809304040E
:1002D0008CCF809124048460809324048AE694E087
:1002E00031E0815090403040E1F700C0809104043B
:0C02F000826080930404BECFF894FFCF1E
:00000001FF
