:1000000019C028C027C063C025C024C023C023C096
:1000100021C020C01FC01EC01DC01CC01BC01AC0F4
:100020003FC018C017C016C015C014C013C012C0FE
:1000300011C010C011241FBECFEFCDBFDFE3DEBF64
:100040002FE3A0E8BFE301C01D92A338B207E1F798
:1000500058D091C1D5CF1F920F920FB60F92112495
:100060008F939F9381E0809353019091803F9923D8
:1000700061F08091770684FD1092000A9F918F9124
:100080000F900FBE0F901F9018958093803F809324
:1000900076069F918F910F900FBE0F901F9018952D
:1000A0001F920F920FB60F9211248F93EF93FF932D
:1000B000E0E7F6E081E0878316821092803FFF91AF
:1000C000EF918F910F900FBE0F901F9018951F9278
:1000D0000F920FB60F9211248F939F9380E280931B
:1000E00009048091813F9091823F01968093813FE6
:1000F0009093823F9F918F910F900FBE0F901F9012
:1001000018958EE38093000484E080931704109286
:1001100004048093200488E08093300480933104A9
:100120008093140480933304809316041092240463
:1001300081E08093000225ED38E042E0215030401C
:100140004040E1F73091280431702091280422705A
:1001500043E450E04093260A5093270A8093000A14
:1001600096E19093410A8093440A4EE150E0409317
:100170004C0A50934D0A8093400A93E8909372067C
:1001800093E09093A00047E9409381068093800616
:1001900041E24093700642E040938A0180938201DD
:1001A000809394019093920193E69093C60198E80E
:1001B0009093C8018093C5018093C0015AE684E002
:1001C00091E0515080409040E1F700C01092803F94
:1001D000809141018111FCCF109247018091510122
:1001E0008111FCCF81E080935201809151018111F6
:1001F000FCCF89E580935001809104048460809352
:100200000404211105C080910404826080930404D9
:10021000789442E0809128048091280483FDFACFED
:100220005BE05A95F1F70000809128048091280442
:1002300083FDF0CF809104048B7F80930404809130
:10024000040488608093040481E691E50197F1F746
:1002500000001092813F1092823F409315048DE878
:1002600090E20197F1F70000109215048FE493ECEF
:100270000197F1F700C0000080910404877F80930C
:1002800004048091813F9091823F879708F446C093
:100290008091813F9091823F8835924008F03EC026
:1002A0008091080486FD06C03FC081E493E0019779
:1002B000F1F70000809128048091280483FFF5CF96
:1002C000211153C0809104048260809304048DE85E
:1002D00090E20197F1F70000809124048B7F8093D6
:1002E00024048DE890E20197F1F700008091040466
:1002F0008061809304049AE654E081E0915050407C
:100300008040E1F700C0809104048F7E8093040454
:10031000809104048460809304047CCF3111CACF9F
:100320008091080486FDC6CF809124048460809368
:1003300024048DE890E20197F1F700008091040415
:1003400021110AC08D7F809304048091280480913C
:10035000280483FFAACFB6CF8260809304048091E3
:1003600028048091280483FFA0CF809104048D7F0E
:0A03700080930404ACCFF894FFCF93
:00000001FF
