:1000000019C028C027C063C025C024C023C023C096
:1000100021C020C01FC01EC01DC01CC01BC01AC0F4
:100020003FC018C017C016C015C014C013C012C0FE
:1000300011C010C011241FBECFEFCDBFDFE3DEBF64
:100040002FE3A0E8BFE301C01D92A338B207E1F798
:1000500058D0A5C1D5CF1F920F920FB60F92112481
:100060008F939F9381E0809353019091803F9923D8
:1000700061F08091770684FD1092000A9F918F9124
:100080000F900FBE0F901F9018958093803F809324
:1000900076069F918F910F900FBE0F901F9018952D
:1000A0001F920F920FB60F9211248F93EF93FF932D
:1000B000E0E7F6E081E0878316821092803FFF91AF
:1000C000EF918F910F900FBE0F901F9018951F9278
:1000D0000F920FB60F9211248F939F9380E280931B
:1000E00009048091813F9091823F01968093813FE6
:1000F0009093823F9F918F910F900FBE0F901F9012
:1001000018958EE28093000484E080931704109287
:1001100004048093200488E08093300480933104A9
:100120008093140480933304809316041092240463
:1001300081E08093000225ED38E092E021503040CC
:100140009040E1F76091280461704091280442706A
:1001500090910804907123E430E02093260A3093B4
:10016000270A8093000A26E12093410A8093440ADB
:100170002EE130E020934C0A30934D0A8093400AE0
:1001800023E82093720623E02093A00037E9309300
:1001900081068093800631E23093700632E030931E
:1001A0008A0180938201809394012093920123E637
:1001B0002093C60128E82093C8018093C50180934D
:1001C000C001EAE6F4E021E0E150F0402040E1F730
:1001D00000C01092803F809141018111FCCF1092AC
:1001E0004701809151018111FCCF81E08093520140
:1001F000809151018111FCCF89E58093500180915C
:100200000404846080930404411105C080910404B7
:10021000826080930404789452E08091280483FFE4
:1002200011C0992309F495C0FBE0FA95F1F700009D
:100230008091280483FD16C08091280480912804B1
:1002400083FDEFCF8091280483FDE7CF9111E5CFA7
:100250003BE03A95F1F70000809128048091280452
:1002600083FDDBCF809104048B7F80930404809115
:100270000404886080930404E1E6F1E53197F1F726
:1002800000001092813F1092823F50931504EDE8D8
:10029000F0E23197F1F70000109215042091813FB0
:1002A0003091823F2732310508F458C02091813FB8
:1002B0003091823F2835324008F050C080910804C8
:1002C00086FF52C0911119C005C0E1E4F3E03197F7
:1002D000F1F70000809128048091280483FFF5CF76
:1002E00080910404442399F08D7F8093040412C00C
:1002F000E1E4F3E03197F1F700008091280483FDF9
:10030000F7CF80912804809104044111EDCF8260E1
:1003100080930404EDE8F0E23197F1F7000080915A
:1003200024048B7F80932404EDE8F0E23197F1F709
:10033000000080910404877F80930404EAE1F1E4E3
:100340003197F1F700C08091040484608093040425
:1003500064CF8091280483FF7BCF5FCF6111B2CF40
:100360008091080486FDAECFEDE8F0E23197F1F719
:10037000000080912404846080932404EDE8F0E27E
:100380003197F1F7000080910404411104C08D7F82
:100390008093040497CF82608093040493CFF894F1
:0203A000FFCF8D
:00000001FF
