:1000000019C028C027C0CDC025C024C023C083C0CC
:1000100021C020C01FC01EC01DC01CC01BC01AC0F4
:1000200019C018C0D8C016C015C014C013C012C063
:1000300011C010C011241FBECFEFCDBFDFE3DEBF64
:100040002FE3A0E0BFE301C01D92AB30B207E1F7A0
:10005000D3D041C5D5CF409148015091490120915D
:10006000480130914901241B350B28173907B8F393
:10007000089540914801509149017091063F6623CF
:10008000E1F07723D1F12091480130914901241BFF
:10009000350B2817390750F52091280423FD21C07E
:1000A0002091280423FDEFCF71E0872F0895772357
:1000B00021F02091280423FDF7CF209148013091B1
:1000C0004901241B350B2817390780F42091280497
:1000D00023FDEDCF2091280423FDE6CF7111EDCF54
:1000E000E3CF2091280423FDCECFDECF70E0872F11
:1000F00008952091280423FFC2CF20914801309118
:100100004901241B350B2817390778F6209128045C
:1001100023FDCACFEECF1F920F920FB60F9211247C
:100120002F938F939F9381E0809353018091033F9E
:100130009091043F88399A4370F58091033F9091E4
:10014000043F01968093033F9093043F80910A3FC0
:100150008931D8F480910A3F8F5F80930A3F809164
:10016000003F8F5F8093003F8091003F893129F4E9
:100170001092003F81E08093013F9F918F912F91DA
:100180000F900FBE0F901F90189580910404837FED
:1001900080930404E4CF809124048D7F8093240411
:1001A000D5CF1F920F920FB60F9211248F939F936A
:1001B00080E2809309048091073F9091083F019667
:1001C0008093073F9093083F9F918F910F900FBEB0
:1001D0000F901F9018951F920F920FB60F92112437
:1001E0008F9382E080930B061092000A8F910F90FC
:1001F0000FBE0F901F901895CF93DF93CDB7DEB74A
:100200002E97CDBFDEBF8EE28093000484E0809302
:100210001604809317041092040488E08093140459
:1002200092E290932004809332048093340480936C
:100230003004809333041092240493E0909340049C
:1002400010924404809352048093530481E080937D
:10025000000288ED84BF909361008091410181117B
:10026000FCCF10924701809141018111FCCF81E0C8
:1002700080934001209148013091490180914801CB
:1002800090914901821B930B8A399941B8F380916F
:10029000080484FF5FC11092063F8091280482FF0A
:1002A00065C11092093F8091280484FF5BC11092C0
:1002B000023F8091280480FF51C11092053F86E7DC
:1002C00091E08093260A9093270A81E08093000AA8
:1002D00096E19093410A8093440A2CE330E0209306
:1002E0004C0A30934D0A8093400A93E8909372062B
:1002F00093E39093A00097E9909381068093800602
:100300008093700692E090938A018093820180939B
:10031000940193E09093920193E69093C60198E83C
:100320009093C8018093C5018093C001209148013A
:10033000309149018091480190914901821B930BB2
:100340008D3C9C40B8F381E890E08093260A90931E
:10035000270A1092010693E090930206109203067A
:1003600081E08093040627E02093060622E0209394
:100370000A0623E332E0209312063093130690938B
:1003800000068093080690E080E07FD39C016BEF2D
:100390007FEF54D3CB01820F931F8B879C87C901BA
:1003A00065E070E04BD3AB01420F531F4D875E8772
:1003B000809151018111FCCF81E0809352018091A5
:1003C00051018111FCCF81E380935001809104049D
:1003D000886080930404809104048B7F80930404DC
:1003E00010920A3F809124048062809324047894C0
:1003F000312C41E050E002E011E0E6E06E2EF7E043
:100400007F2E4430510509F472C04530510508F47F
:10041000B1C04630510509F4AEC108F4C6C06091C0
:10042000093F4730510509F08AC180914404662391
:1004300009F4EEC1816080934404809124048F7D8F
:100440008093240420914801309149018091480112
:1004500090914901821B930B8197C0F380914404D2
:100460008D7F809344048091013F8823F1F21092A4
:100470000A0610930006809108068111FCCF609255
:1004800006062091480130914901809148019091E0
:100490004901821B930B0297C0F3109308068091C9
:1004A00008068111FCCF80911006909111068F33C0
:1004B000914010F447E050E0709206062091480108
:1004C000309149018091480190914901821B930B21
:1004D0000297C0F300930A0683E08093000610930E
:1004E00008061092013F4430510509F08ECF40912B
:1004F000063F209148013091490180914801909137
:100500004901821B930B8834914008F00CC1809103
:10051000280483FFBBC0442321F08091280483FD7D
:10052000ECCF8091040482608093040480910404E1
:1005300084608093040480910404877F8093040482
:1005400010920A3F8091013F882309F4A9C042E03C
:1005500050E08DCF81E08093063F9FCE81E0809375
:10056000053FADCE81E08093023FA3CE81E0809332
:10057000093F99CE4230510509F490C043305105EE
:1005800009F0DDC04091063F8091280483FFA7C099
:10059000442321F08091280483FDA7C08091013F6E
:1005A000882391F343E050E062CF4091063F2091D1
:1005B0004801309149018091480190914901821B85
:1005C000930B8834914008F060C18091280483FF28
:1005D0002EC0442381F38091280483FFECCF8091C7
:1005E00044048D7F80934404209148013091490157
:1005F0008091480190914901821B930B883491406E
:1006000060F58091280483FF19C0442321F0809174
:10061000280483FDEDCF80914404826080934404DC
:100620008091013F882319F245E050E020CF80916E
:10063000280483FDD4CF4111BECFD1CF80912804AF
:1006400083FDD6CF4423A1F2E6CF8091280483FD19
:1006500002C041112FC010921504809104048D7FB7
:100660008093040480910404886080930404809142
:1006700004048B7F8093040410920A3F8091013F11
:10068000882309F436CF44E050E0F1CE809128046D
:1006900083FD33CF442309F430CF43CF4091063F4D
:1006A0001092073F1092083F0093150420914801D3
:1006B000309149018091480190914901821B930B2F
:1006C0008C3E914008F0B0C08091280483FFBDCFDC
:1006D000442381F38091280483FFECCFBCCF809129
:1006E000280483FD02C0411159CF809104048D7FFD
:1006F00080930404809104048860809304048091B2
:1007000004048B7F8093040410920A3F20914801D7
:10071000309149018091480190914901821B930BCE
:1007200088349140B8F3809124048062809324043B
:100730008091013F882329F041E050E098CE40911C
:10074000063F8091280483FF67C0442321F08091F5
:10075000280483FDEDCF809124048F7D80932404B1
:10076000E0CE8091280483FD1DC04423D9F0809100
:10077000013F811143C04091063F5091093F809154
:1007800024048260809324041092033F1092043F5B
:100790008091280483FFE5CF442349F38091280406
:1007A00083FFE5CF80914404552309F481C0816023
:1007B000809344042091480130914901809148017F
:1007C00090914901821B930B8834914008F06BC0D3
:1007D0008091280483FF15C0442321F080912804D0
:1007E00083FDECCF552309F454C0809144048E7FDF
:1007F000809344048091013F882309F246E050E051
:1008000036CE8091280483FDD9CF4423B9F2EACFB4
:100810008E7F8093440411CE8091280483FD88CF7D
:10082000442309F485CF97CF109215048091480492
:1008300083FDB4CE8091480482FFB0CE8091023F08
:100840009091053F811138C0992309F4E4CE80913D
:10085000073F9091083F2B853C85281739070CF0FE
:100860003CC08091073F9091083F2D853E858217BF
:1008700093079CF5809144048260809344048091A6
:10088000013F312C8111D0CE92CE5091093F5111B0
:10089000ACCF809144048160809344048091013FF7
:1008A0008111ACCF6CCF8091013F8111BDCE7FCE45
:1008B0008E7F809344047ECF9111ADCE8091073F0F
:1008C0009091083F4F970CF469CE8091073F90912B
:1008D000083F8A3E914074F261CE8091073F90912B
:1008E000083FE32DF0E0EE0FFF1F21E030E02C0F7A
:1008F0003D1FE20FF31F80839183339435E0331261
:100900004DCE89809A80AB80BC80CD80DE80EF8028
:10091000F88449845A84F401EA0DFB1DEC0DFD1D99
:10092000EE0DFF1DE40DF51DCF0165E070E086D0F2
:100930009B01C4010A97813E914008F05CC0CB0145
:100940008897881699060CF456C0805B9F4F8815CF
:1009500099050CF450C0C5010A97813E914008F0FA
:1009600047C0C9018897A816B9060CF441C0805B3E
:100970009F4F8A159B05E4F1C6010A97813E91407D
:10098000A0F5C9018897C816D9067CF1805B9F4FF6
:100990008C159D0554F1C7010A97813E914010F5D1
:1009A000C9018897E816F906ECF0805B9F4F8E1519
:1009B0009F05C4F0C2010A97813E914068F4C901C5
:1009C00088974816590644F0C901889684159505FC
:1009D0001CF065E0361691F08091013F312C8111B9
:1009E000E1CDD2CD8AE0382EE5CF9AE0392ED3CFB3
:1009F0005AE0352EC1CF6AE0362EADCFCF0167EE7B
:100A00007FEF1CD0CB01820F931F8B879C87CF0178
:100A100069E170E013D0AB01420F531F4D875E8731
:100A2000B90190E080E036D08091013F811104C08F
:100A30004091063F312CA8CD312CB4CD97FB072E29
:100A400016F4009406D077FD08D00BD007FC05D033
:100A50003EF4909581959F4F0895709561957F4FD5
:100A60000895AA1BBB1B51E107C0AA1FBB1FA617F5
:100A7000B70710F0A61BB70B881F991F5A95A9F747
:100A800080959095BC01CD0108950E945305808109
:100A9000918108950E945705272F0C94580503D083
:100AA000808199270895FC01E050FC4E0895262F7F
:100AB000AF93BF93E0E0F0E1328131FDFDCFDC0187
:100AC000A050BC4E2C932DE924BF23E02083019637
:0A0AD000BF91AF910895F894FFCF95
:00000001FF
