:1000000019C028C027C026C025C024C023C023C0D3
:1000100021C020C01FC01EC01DC01CC01BC01AC0F4
:1000200046C018C017C016C015C014C013C012C0F7
:1000300011C010C011241FBECFEFCDBFDFE3DEBF64
:100040002FE3A0E8BFE301C01D92A138B207E1F79A
:1000500045D0ADC0D5CF1F920F920FB60F9211248D
:100060008F939F9381E0809353019091803F9111F2
:1000700010C0909104049F7E909304048093803F6D
:10008000809376069F918F910F900FBE0F901F90D7
:100090001895809104048061809304041092000AF2
:1000A0009F918F910F900FBE0F901F9018951F92E8
:1000B0000F920FB60F9211248F93EF93FF93E0E707
:1000C000F6E081E0878316821092803FFF91EF91E6
:1000D0008F910F900FBE0F901F90189584E380931F
:1000E000000484E0809317041092040481E080935C
:1000F000000225E136E195E0215030409040E1F7E3
:1001000024E630E02093260A3093270A8093000AE1
:1001100096E19093410A8093440A22E330E02093D1
:100120004C0A30934D0A8093400A93E890937206EC
:1001300093E09093A00021E42093810680938006B1
:1001400021E22093700622E020938A0180938201AD
:1001500080939A01809394019093920193E69093F7
:10016000C60198E89093C8018093C5018093C001AF
:1001700025ED38E082E0215030408040E1F71092D8
:10018000803F809141018111FCCF10924701809105
:1001900051018111FCCF81E0809352018091510186
:1001A0008111FCCF89E5809350017894FFCFF894BA
:0201B000FFCF7F
:00000001FF
